{
  "contractName": "GuardiansMigrationV1V2",
  "abi": [
    {
      "anonymous": false,
      "inputs": [
        {
          "indexed": true,
          "internalType": "address",
          "name": "oldGuardianAddress",
          "type": "address"
        },
        {
          "indexed": true,
          "internalType": "address",
          "name": "newGuardianAddress",
          "type": "address"
        }
      ],
      "name": "GuardianAddressMigrationRecorded",
      "type": "event"
    },
    {
      "inputs": [
        {
          "internalType": "address",
          "name": "newAddress",
          "type": "address"
        }
      ],
      "name": "setNewGuardianAddress",
      "outputs": [],
      "stateMutability": "nonpayable",
      "type": "function"
    },
    {
      "inputs": [
        {
          "internalType": "address",
          "name": "oldAddress",
          "type": "address"
        }
      ],
      "name": "getGuardianV2Address",
      "outputs": [
        {
          "internalType": "address",
          "name": "newAddress",
          "type": "address"
        }
      ],
      "stateMutability": "view",
      "type": "function"
    },
    {
      "inputs": [
        {
          "internalType": "address[]",
          "name": "oldAddresses",
          "type": "address[]"
        }
      ],
      "name": "getGuardiansV2AddressBatch",
      "outputs": [
        {
          "internalType": "address[]",
          "name": "newAddresses",
          "type": "address[]"
        }
      ],
      "stateMutability": "view",
      "type": "function"
    }
  ],
  "bytecode": "0x608060405234801561001057600080fd5b50610340806100206000396000f3fe608060405234801561001057600080fd5b50600436106100415760003560e01c806310d95985146100465780635c63fd22146100a2578063614c050114610162575b600080fd5b6100796004803603602081101561005c57600080fd5b503573ffffffffffffffffffffffffffffffffffffffff16610197565b6040805173ffffffffffffffffffffffffffffffffffffffff9092168252519081900360200190f35b610112600480360360208110156100b857600080fd5b8101906020810181356401000000008111156100d357600080fd5b8201836020820111156100e557600080fd5b8035906020019184602083028401116401000000008311171561010757600080fd5b5090925090506101cc565b60408051602080825283518183015283519192839290830191858101910280838360005b8381101561014e578181015183820152602001610136565b505050509050019250505060405180910390f35b6101956004803603602081101561017857600080fd5b503573ffffffffffffffffffffffffffffffffffffffff1661028e565b005b73ffffffffffffffffffffffffffffffffffffffff80821660009081526020819052604090205416806101c75750805b919050565b60608167ffffffffffffffff811180156101e557600080fd5b5060405190808252806020026020018201604052801561020f578160200160208202803683370190505b50905060005b828110156102875761024e84848381811061022c57fe5b9050602002013573ffffffffffffffffffffffffffffffffffffffff16610197565b82828151811061025a57fe5b73ffffffffffffffffffffffffffffffffffffffff90921660209283029190910190910152600101610215565b5092915050565b3360008181526020819052604080822080547fffffffffffffffffffffffff00000000000000000000000000000000000000001673ffffffffffffffffffffffffffffffffffffffff861690811790915590519092917fe69d379b5ba0bfef45ef949308c72a0661152b253e7c3e77973d1afefa18375d91a35056fea2646970667358221220ccf9f52f1db2d90496630776c440e12a55bfd59bd7153af7fac6d00e82066d2f64736f6c634300060c0033",
  "immutableReferences": {},
  "source": "// SPDX-License-Identifier: UNLICENSED\n\npragma solidity 0.6.12;\n\ncontract GuardiansMigrationV1V2 {\n    event GuardianAddressMigrationRecorded(address indexed oldGuardianAddress, address indexed newGuardianAddress);\n    mapping (address => address) newGuardianAddress;\n    function setNewGuardianAddress(address newAddress) external {\n        newGuardianAddress[msg.sender] = newAddress;\n        emit GuardianAddressMigrationRecorded(msg.sender, newAddress);\n    }\n    function getGuardianV2Address(address oldAddress) public view returns(address newAddress) {\n        newAddress = newGuardianAddress[oldAddress];\n        if (newAddress == address(0)) {\n            newAddress = oldAddress;\n        }\n    }\n    function getGuardiansV2AddressBatch(address[] calldata oldAddresses) external view returns(address[] memory newAddresses) {\n        newAddresses = new address[](oldAddresses.length);\n        for (uint i = 0; i < oldAddresses.length; i++) {\n            newAddresses[i] = getGuardianV2Address(oldAddresses[i]);\n        }\n        return newAddresses;\n    }\n}\n\n",
  "sourcePath": "/Users/ron/repos/orbs-migrate-delegations-v2/contracts/GuardiansMigrationV1V2.sol",
  "compiler": {
    "name": "solc",
    "version": "0.6.12+commit.27d51765.Emscripten.clang"
  },
  "schemaVersion": "3.2.4",
  "updatedAt": "2020-09-06T12:37:46.291Z",
  "devdoc": {
    "kind": "dev",
    "methods": {},
    "version": 1
  },
  "userdoc": {
    "kind": "user",
    "methods": {},
    "version": 1
  }
}