{
  "contractName": "GuardiansMigrationV1V2",
  "abi": [
    {
      "anonymous": false,
      "inputs": [
        {
          "indexed": true,
          "internalType": "address",
          "name": "oldGuardianAddress",
          "type": "address"
        },
        {
          "indexed": true,
          "internalType": "address",
          "name": "newGuardianAddress",
          "type": "address"
        }
      ],
      "name": "GuardianAddressMigrationRecorded",
      "type": "event"
    },
    {
      "constant": false,
      "inputs": [
        {
          "internalType": "address",
          "name": "newAddress",
          "type": "address"
        }
      ],
      "name": "setNewGuardianAddress",
      "outputs": [],
      "payable": false,
      "stateMutability": "nonpayable",
      "type": "function"
    },
    {
      "constant": true,
      "inputs": [
        {
          "internalType": "address",
          "name": "oldAddress",
          "type": "address"
        }
      ],
      "name": "getGuardianV2Address",
      "outputs": [
        {
          "internalType": "address",
          "name": "newAddress",
          "type": "address"
        }
      ],
      "payable": false,
      "stateMutability": "view",
      "type": "function"
    },
    {
      "constant": true,
      "inputs": [
        {
          "internalType": "address[]",
          "name": "oldAddresses",
          "type": "address[]"
        }
      ],
      "name": "getGuardiansV2AddressBatch",
      "outputs": [
        {
          "internalType": "address[]",
          "name": "newAddresses",
          "type": "address[]"
        }
      ],
      "payable": false,
      "stateMutability": "view",
      "type": "function"
    }
  ],
  "bytecode": "0x608060405234801561001057600080fd5b50610462806100206000396000f3fe608060405234801561001057600080fd5b50600436106100415760003560e01c806310d95985146100465780635c63fd22146100ca578063614c050114610198575b600080fd5b6100886004803603602081101561005c57600080fd5b81019080803573ffffffffffffffffffffffffffffffffffffffff1690602001909291905050506101dc565b604051808273ffffffffffffffffffffffffffffffffffffffff1673ffffffffffffffffffffffffffffffffffffffff16815260200191505060405180910390f35b610141600480360360208110156100e057600080fd5b81019080803590602001906401000000008111156100fd57600080fd5b82018360208201111561010f57600080fd5b8035906020019184602083028401116401000000008311171561013157600080fd5b909192939192939050505061027d565b6040518080602001828103825283818151815260200191508051906020019060200280838360005b83811015610184578082015181840152602081019050610169565b505050509050019250505060405180910390f35b6101da600480360360208110156101ae57600080fd5b81019080803573ffffffffffffffffffffffffffffffffffffffff169060200190929190505050610353565b005b60008060008373ffffffffffffffffffffffffffffffffffffffff1673ffffffffffffffffffffffffffffffffffffffff16815260200190815260200160002060009054906101000a900473ffffffffffffffffffffffffffffffffffffffff169050600073ffffffffffffffffffffffffffffffffffffffff168173ffffffffffffffffffffffffffffffffffffffff161415610278578190505b919050565b6060828290506040519080825280602002602001820160405280156102b15781602001602082028038833980820191505090505b50905060008090505b83839050811015610349576102f68484838181106102d457fe5b9050602002013573ffffffffffffffffffffffffffffffffffffffff166101dc565b82828151811061030257fe5b602002602001019073ffffffffffffffffffffffffffffffffffffffff16908173ffffffffffffffffffffffffffffffffffffffff168152505080806001019150506102ba565b5080905092915050565b806000803373ffffffffffffffffffffffffffffffffffffffff1673ffffffffffffffffffffffffffffffffffffffff16815260200190815260200160002060006101000a81548173ffffffffffffffffffffffffffffffffffffffff021916908373ffffffffffffffffffffffffffffffffffffffff1602179055508073ffffffffffffffffffffffffffffffffffffffff163373ffffffffffffffffffffffffffffffffffffffff167fe69d379b5ba0bfef45ef949308c72a0661152b253e7c3e77973d1afefa18375d60405160405180910390a35056fea265627a7a7231582085f107476037474f3cfb9d9729f592c177222ee1200499c0301f9563dc75ed4664736f6c63430005110032",
  "source": "pragma solidity 0.5.17;\n\ncontract GuardiansMigrationV1V2 {\n    event GuardianAddressMigrationRecorded(address indexed oldGuardianAddress, address indexed newGuardianAddress);\n    mapping (address => address) newGuardianAddress;\n    function setNewGuardianAddress(address newAddress) external {\n        newGuardianAddress[msg.sender] = newAddress;\n        emit GuardianAddressMigrationRecorded(msg.sender, newAddress);\n    }\n    function getGuardianV2Address(address oldAddress) public view returns(address newAddress) {\n        newAddress = newGuardianAddress[oldAddress];\n        if (newAddress == address(0)) {\n            newAddress = oldAddress;\n        }\n    }\n    function getGuardiansV2AddressBatch(address[] calldata oldAddresses) external view returns(address[] memory newAddresses) {\n        newAddresses = new address[](oldAddresses.length);\n        for (uint i = 0; i < oldAddresses.length; i++) {\n            newAddresses[i] = getGuardianV2Address(oldAddresses[i]);\n        }\n        return newAddresses;\n    }\n}\n\n",
  "sourcePath": "/Users/ron/repos/orbs-v1-v2-stakers-sync/contracts/GuardiansMigrationV1V2.sol",
  "compiler": {
    "name": "solc",
    "version": "0.5.17+commit.d19bba13.Emscripten.clang"
  },
  "schemaVersion": "3.2.4",
  "updatedAt": "2020-08-31T09:06:06.029Z",
  "devdoc": {
    "methods": {}
  },
  "userdoc": {
    "methods": {}
  }
}